{
    "abi": [
        {
            "type": "constructor",
            "inputs": [],
            "stateMutability": "nonpayable"
        },
        {
            "type": "function",
            "name": "calculateFlatEarthDistance",
            "inputs": [
                {
                    "name": "lat1",
                    "type": "uint256",
                    "internalType": "uint256"
                },
                {
                    "name": "lon1",
                    "type": "uint256",
                    "internalType": "uint256"
                },
                {
                    "name": "lat2",
                    "type": "uint256",
                    "internalType": "uint256"
                },
                {
                    "name": "lon2",
                    "type": "uint256",
                    "internalType": "uint256"
                }
            ],
            "outputs": [
                {
                    "name": "",
                    "type": "uint256",
                    "internalType": "uint256"
                }
            ],
            "stateMutability": "pure"
        },
        {
            "type": "function",
            "name": "getInsurances",
            "inputs": [],
            "outputs": [
                {
                    "name": "",
                    "type": "tuple[]",
                    "internalType": "struct InsuranceEscrow.Insurance[]",
                    "components": [
                        {
                            "name": "receiver",
                            "type": "address",
                            "internalType": "address"
                        },
                        {
                            "name": "premium",
                            "type": "uint256",
                            "internalType": "uint256"
                        },
                        {
                            "name": "payout",
                            "type": "uint256",
                            "internalType": "uint256"
                        },
                        {
                            "name": "long",
                            "type": "uint256",
                            "internalType": "uint256"
                        },
                        {
                            "name": "lat",
                            "type": "uint256",
                            "internalType": "uint256"
                        },
                        {
                            "name": "radius",
                            "type": "uint256",
                            "internalType": "uint256"
                        },
                        {
                            "name": "snarkId",
                            "type": "bytes32",
                            "internalType": "bytes32"
                        },
                        {
                            "name": "value",
                            "type": "uint256",
                            "internalType": "uint256"
                        }
                    ]
                }
            ],
            "stateMutability": "view"
        },
        {
            "type": "function",
            "name": "getPremiumTimestamp",
            "inputs": [
                {
                    "name": "id",
                    "type": "uint256",
                    "internalType": "uint256"
                },
                {
                    "name": "account",
                    "type": "address",
                    "internalType": "address"
                }
            ],
            "outputs": [
                {
                    "name": "",
                    "type": "uint256",
                    "internalType": "uint256"
                }
            ],
            "stateMutability": "view"
        },
        {
            "type": "function",
            "name": "isJsonApiProofValid",
            "inputs": [
                {
                    "name": "_proof",
                    "type": "tuple",
                    "internalType": "struct IJsonApi.Proof",
                    "components": [
                        {
                            "name": "merkleProof",
                            "type": "bytes32[]",
                            "internalType": "bytes32[]"
                        },
                        {
                            "name": "data",
                            "type": "tuple",
                            "internalType": "struct IJsonApi.Response",
                            "components": [
                                {
                                    "name": "attestationType",
                                    "type": "bytes32",
                                    "internalType": "bytes32"
                                },
                                {
                                    "name": "sourceId",
                                    "type": "bytes32",
                                    "internalType": "bytes32"
                                },
                                {
                                    "name": "votingRound",
                                    "type": "uint64",
                                    "internalType": "uint64"
                                },
                                {
                                    "name": "lowestUsedTimestamp",
                                    "type": "uint64",
                                    "internalType": "uint64"
                                },
                                {
                                    "name": "requestBody",
                                    "type": "tuple",
                                    "internalType": "struct IJsonApi.RequestBody",
                                    "components": [
                                        {
                                            "name": "url",
                                            "type": "string",
                                            "internalType": "string"
                                        },
                                        {
                                            "name": "postprocessJq",
                                            "type": "string",
                                            "internalType": "string"
                                        },
                                        {
                                            "name": "abi_signature",
                                            "type": "string",
                                            "internalType": "string"
                                        }
                                    ]
                                },
                                {
                                    "name": "responseBody",
                                    "type": "tuple",
                                    "internalType": "struct IJsonApi.ResponseBody",
                                    "components": [
                                        {
                                            "name": "abi_encoded_data",
                                            "type": "bytes",
                                            "internalType": "bytes"
                                        }
                                    ]
                                }
                            ]
                        }
                    ]
                }
            ],
            "outputs": [
                {
                    "name": "",
                    "type": "bool",
                    "internalType": "bool"
                }
            ],
            "stateMutability": "view"
        },
        {
            "type": "function",
            "name": "newInsurance",
            "inputs": [
                {
                    "name": "receiver",
                    "type": "address",
                    "internalType": "address"
                },
                {
                    "name": "premium",
                    "type": "uint256",
                    "internalType": "uint256"
                },
                {
                    "name": "payout",
                    "type": "uint256",
                    "internalType": "uint256"
                },
                {
                    "name": "x",
                    "type": "uint256",
                    "internalType": "uint256"
                },
                {
                    "name": "y",
                    "type": "uint256",
                    "internalType": "uint256"
                },
                {
                    "name": "radius",
                    "type": "uint256",
                    "internalType": "uint256"
                },
                {
                    "name": "snarkId",
                    "type": "bytes32",
                    "internalType": "bytes32"
                }
            ],
            "outputs": [
                {
                    "name": "id",
                    "type": "uint256",
                    "internalType": "uint256"
                }
            ],
            "stateMutability": "payable"
        },
        {
            "type": "function",
            "name": "payPremium",
            "inputs": [
                {
                    "name": "id",
                    "type": "uint256",
                    "internalType": "uint256"
                }
            ],
            "outputs": [],
            "stateMutability": "payable"
        },
        {
            "type": "function",
            "name": "requestPayout",
            "inputs": [
                {
                    "name": "minaData",
                    "type": "tuple",
                    "internalType": "struct IJsonApi.Proof",
                    "components": [
                        {
                            "name": "merkleProof",
                            "type": "bytes32[]",
                            "internalType": "bytes32[]"
                        },
                        {
                            "name": "data",
                            "type": "tuple",
                            "internalType": "struct IJsonApi.Response",
                            "components": [
                                {
                                    "name": "attestationType",
                                    "type": "bytes32",
                                    "internalType": "bytes32"
                                },
                                {
                                    "name": "sourceId",
                                    "type": "bytes32",
                                    "internalType": "bytes32"
                                },
                                {
                                    "name": "votingRound",
                                    "type": "uint64",
                                    "internalType": "uint64"
                                },
                                {
                                    "name": "lowestUsedTimestamp",
                                    "type": "uint64",
                                    "internalType": "uint64"
                                },
                                {
                                    "name": "requestBody",
                                    "type": "tuple",
                                    "internalType": "struct IJsonApi.RequestBody",
                                    "components": [
                                        {
                                            "name": "url",
                                            "type": "string",
                                            "internalType": "string"
                                        },
                                        {
                                            "name": "postprocessJq",
                                            "type": "string",
                                            "internalType": "string"
                                        },
                                        {
                                            "name": "abi_signature",
                                            "type": "string",
                                            "internalType": "string"
                                        }
                                    ]
                                },
                                {
                                    "name": "responseBody",
                                    "type": "tuple",
                                    "internalType": "struct IJsonApi.ResponseBody",
                                    "components": [
                                        {
                                            "name": "abi_encoded_data",
                                            "type": "bytes",
                                            "internalType": "bytes"
                                        }
                                    ]
                                }
                            ]
                        }
                    ]
                },
                {
                    "name": "quakeData",
                    "type": "tuple",
                    "internalType": "struct IJsonApi.Proof",
                    "components": [
                        {
                            "name": "merkleProof",
                            "type": "bytes32[]",
                            "internalType": "bytes32[]"
                        },
                        {
                            "name": "data",
                            "type": "tuple",
                            "internalType": "struct IJsonApi.Response",
                            "components": [
                                {
                                    "name": "attestationType",
                                    "type": "bytes32",
                                    "internalType": "bytes32"
                                },
                                {
                                    "name": "sourceId",
                                    "type": "bytes32",
                                    "internalType": "bytes32"
                                },
                                {
                                    "name": "votingRound",
                                    "type": "uint64",
                                    "internalType": "uint64"
                                },
                                {
                                    "name": "lowestUsedTimestamp",
                                    "type": "uint64",
                                    "internalType": "uint64"
                                },
                                {
                                    "name": "requestBody",
                                    "type": "tuple",
                                    "internalType": "struct IJsonApi.RequestBody",
                                    "components": [
                                        {
                                            "name": "url",
                                            "type": "string",
                                            "internalType": "string"
                                        },
                                        {
                                            "name": "postprocessJq",
                                            "type": "string",
                                            "internalType": "string"
                                        },
                                        {
                                            "name": "abi_signature",
                                            "type": "string",
                                            "internalType": "string"
                                        }
                                    ]
                                },
                                {
                                    "name": "responseBody",
                                    "type": "tuple",
                                    "internalType": "struct IJsonApi.ResponseBody",
                                    "components": [
                                        {
                                            "name": "abi_encoded_data",
                                            "type": "bytes",
                                            "internalType": "bytes"
                                        }
                                    ]
                                }
                            ]
                        }
                    ]
                },
                {
                    "name": "id",
                    "type": "uint256",
                    "internalType": "uint256"
                }
            ],
            "outputs": [],
            "stateMutability": "nonpayable"
        },
        {
            "type": "event",
            "name": "ClaimPaid",
            "inputs": [
                {
                    "name": "id",
                    "type": "uint256",
                    "indexed": true,
                    "internalType": "uint256"
                },
                {
                    "name": "receiver",
                    "type": "address",
                    "indexed": true,
                    "internalType": "address"
                },
                {
                    "name": "payout",
                    "type": "uint256",
                    "indexed": true,
                    "internalType": "uint256"
                }
            ],
            "anonymous": false
        },
        {
            "type": "event",
            "name": "NewInsurance",
            "inputs": [
                {
                    "name": "id",
                    "type": "uint256",
                    "indexed": true,
                    "internalType": "uint256"
                }
            ],
            "anonymous": false
        },
        {
            "type": "event",
            "name": "PremiumPaid",
            "inputs": [
                {
                    "name": "id",
                    "type": "uint256",
                    "indexed": true,
                    "internalType": "uint256"
                },
                {
                    "name": "payer",
                    "type": "address",
                    "indexed": true,
                    "internalType": "address"
                }
            ],
            "anonymous": false
        }
    ],
    "bytecode": {
        "object": "0x6080604052348015600f57600080fd5b50611e178061001f6000396000f3fe6080604052600436106100705760003560e01c8063715e5bb41161004e578063715e5bb4146100f9578063871800fa146101365780639d6df0511461015f578063af045b4c1461019c57610070565b80630e709ca7146100755780634364b26e146100a0578063512d1fd6146100bc575b600080fd5b34801561008157600080fd5b5061008a6101cc565b6040516100979190610d8d565b60405180910390f35b6100ba60048036038101906100b59190610def565b6102c8565b005b3480156100c857600080fd5b506100e360048036038101906100de9190610e1c565b6103cc565b6040516100f09190610e92565b60405180910390f35b34801561010557600080fd5b50610120600480360381019061011b9190610ed9565b610489565b60405161012d9190610e92565b60405180910390f35b34801561014257600080fd5b5061015d60048036038101906101589190610f3d565b6104e4565b005b34801561016b57600080fd5b5061018660048036038101906101819190610fc8565b610993565b604051610193919061102c565b60405180910390f35b6101b660048036038101906101b19190611073565b610a1d565b6040516101c39190610e92565b60405180910390f35b60606000805480602002602001604051908101604052809291908181526020016000905b828210156102bf5783829060005260206000209060080201604051806101000160405290816000820160009054906101000a900473ffffffffffffffffffffffffffffffffffffffff1673ffffffffffffffffffffffffffffffffffffffff1673ffffffffffffffffffffffffffffffffffffffff168152602001600182015481526020016002820154815260200160038201548152602001600482015481526020016005820154815260200160068201548152602001600782015481525050815260200190600101906101f0565b50505050905090565b600081815481106102dc576102db611115565b5b906000526020600020906008020160010154341015610330576040517f08c379a00000000000000000000000000000000000000000000000000000000081526004016103279061117b565b60405180910390fd5b426001600083815260200190815260200160002060003373ffffffffffffffffffffffffffffffffffffffff1673ffffffffffffffffffffffffffffffffffffffff168152602001908152602001600020819055503373ffffffffffffffffffffffffffffffffffffffff16817f0f58f21f82449feef29bbdbf3daf66287d35b70a3bed5faf4823b22335c0769d60405160405180910390a350565b6000806201b198905060008685116103ef5784876103ea91906111ca565b6103fc565b86856103fb91906111ca565b5b9050600086851161041857848761041391906111ca565b610425565b868561042491906111ca565b5b905060006002848361043791906111fe565b6104419190611380565b6002858561044f91906111fe565b6104599190611380565b61046391906113cb565b905069021e19e0c9bab24000008161047b919061142e565b945050505050949350505050565b60006001600084815260200190815260200160002060008373ffffffffffffffffffffffffffffffffffffffff1673ffffffffffffffffffffffffffffffffffffffff16815260200190815260200160002054905092915050565b62278d006001600083815260200190815260200160002060003373ffffffffffffffffffffffffffffffffffffffff1673ffffffffffffffffffffffffffffffffffffffff168152602001908152602001600020544261054491906111ca565b1115610585576040517f08c379a000000000000000000000000000000000000000000000000000000000815260040161057c9061117b565b60405180910390fd5b61058e83610993565b6105cd576040517f08c379a00000000000000000000000000000000000000000000000000000000081526004016105c4906114ab565b60405180910390fd5b6105d682610993565b610615576040517f08c379a000000000000000000000000000000000000000000000000000000000815260040161060c90611517565b60405180910390fd5b60008280602001906106279190611546565b8060a00190610636919061156e565b80600001906106459190611596565b8101906106529190611702565b905060006106b4826040015183606001516000868154811061067757610676611115565b5b9060005260206000209060080201600301546000878154811061069d5761069c611115565b5b9060005260206000209060080201600401546103cc565b9050600083815481106106ca576106c9611115565b5b906000526020600020906008020160050154811061071d576040517f08c379a0000000000000000000000000000000000000000000000000000000008152600401610714906117a1565b60405180910390fd5b600085806020019061072f9190611546565b8060a0019061073e919061156e565b806000019061074d9190611596565b81019061075a91906117fd565b90503373ffffffffffffffffffffffffffffffffffffffff16816000015173ffffffffffffffffffffffffffffffffffffffff161461079857600080fd5b600084815481106107ac576107ab611115565b5b906000526020600020906008020160020154600085815481106107d2576107d1611115565b5b906000526020600020906008020160070160008282546107f291906111ca565b9250508190555060006001600086815260200190815260200160002060003373ffffffffffffffffffffffffffffffffffffffff1673ffffffffffffffffffffffffffffffffffffffff1681526020019081526020016000208190555060003373ffffffffffffffffffffffffffffffffffffffff166000868154811061087c5761087b611115565b5b90600052602060002090600802016002015460405161089a90611858565b60006040518083038185875af1925050503d80600081146108d7576040519150601f19603f3d011682016040523d82523d6000602084013e6108dc565b606091505b5050905080610920576040517f08c379a00000000000000000000000000000000000000000000000000000000081526004016109179061117b565b60405180910390fd5b6000858154811061093457610933611115565b5b9060005260206000209060080201600201543373ffffffffffffffffffffffffffffffffffffffff16867faf3c8fdd75d667f71d36d7840b8ef9086c516c9b047ad6a83a5a66151342123a60405160405180910390a450505050505050565b600061099d610bac565b73ffffffffffffffffffffffffffffffffffffffff1663d0f18f85836040518263ffffffff1660e01b81526004016109d59190611d66565b602060405180830381865afa1580156109f2573d6000803e3d6000fd5b505050506040513d601f19601f82011682018060405250810190610a169190611db4565b9050919050565b600085341015610a62576040517f08c379a0000000000000000000000000000000000000000000000000000000008152600401610a599061117b565b60405180910390fd5b60006040518061010001604052808a73ffffffffffffffffffffffffffffffffffffffff16815260200189815260200188815260200187815260200186815260200185815260200184815260200134815250908060018154018082558091505060019003906000526020600020906008020160009091909190915060008201518160000160006101000a81548173ffffffffffffffffffffffffffffffffffffffff021916908373ffffffffffffffffffffffffffffffffffffffff1602179055506020820151816001015560408201518160020155606082015181600301556080820151816004015560a0820151816005015560c0820151816006015560e0820151816007015550506000805490509050807f9d775c18a03054ab1c9ea7f112ca9596678e16bd9d54d785a2fbcb85a08b8d6860405160405180910390a2979650505050505050565b600073206d83e3a24523de1e43ab56ac8f7b9b10f6ab89905090565b600081519050919050565b600082825260208201905092915050565b6000819050602082019050919050565b600073ffffffffffffffffffffffffffffffffffffffff82169050919050565b6000610c1f82610bf4565b9050919050565b610c2f81610c14565b82525050565b6000819050919050565b610c4881610c35565b82525050565b6000819050919050565b610c6181610c4e565b82525050565b61010082016000820151610c7e6000850182610c26565b506020820151610c916020850182610c3f565b506040820151610ca46040850182610c3f565b506060820151610cb76060850182610c3f565b506080820151610cca6080850182610c3f565b5060a0820151610cdd60a0850182610c3f565b5060c0820151610cf060c0850182610c58565b5060e0820151610d0360e0850182610c3f565b50505050565b6000610d158383610c67565b6101008301905092915050565b6000602082019050919050565b6000610d3a82610bc8565b610d448185610bd3565b9350610d4f83610be4565b8060005b83811015610d80578151610d678882610d09565b9750610d7283610d22565b925050600181019050610d53565b5085935050505092915050565b60006020820190508181036000830152610da78184610d2f565b905092915050565b6000604051905090565b600080fd5b600080fd5b610dcc81610c35565b8114610dd757600080fd5b50565b600081359050610de981610dc3565b92915050565b600060208284031215610e0557610e04610db9565b5b6000610e1384828501610dda565b91505092915050565b60008060008060808587031215610e3657610e35610db9565b5b6000610e4487828801610dda565b9450506020610e5587828801610dda565b9350506040610e6687828801610dda565b9250506060610e7787828801610dda565b91505092959194509250565b610e8c81610c35565b82525050565b6000602082019050610ea76000830184610e83565b92915050565b610eb681610c14565b8114610ec157600080fd5b50565b600081359050610ed381610ead565b92915050565b60008060408385031215610ef057610eef610db9565b5b6000610efe85828601610dda565b9250506020610f0f85828601610ec4565b9150509250929050565b600080fd5b600060408284031215610f3457610f33610f19565b5b81905092915050565b600080600060608486031215610f5657610f55610db9565b5b600084013567ffffffffffffffff811115610f7457610f73610dbe565b5b610f8086828701610f1e565b935050602084013567ffffffffffffffff811115610fa157610fa0610dbe565b5b610fad86828701610f1e565b9250506040610fbe86828701610dda565b9150509250925092565b600060208284031215610fde57610fdd610db9565b5b600082013567ffffffffffffffff811115610ffc57610ffb610dbe565b5b61100884828501610f1e565b91505092915050565b60008115159050919050565b61102681611011565b82525050565b6000602082019050611041600083018461101d565b92915050565b61105081610c4e565b811461105b57600080fd5b50565b60008135905061106d81611047565b92915050565b600080600080600080600060e0888a03121561109257611091610db9565b5b60006110a08a828b01610ec4565b97505060206110b18a828b01610dda565b96505060406110c28a828b01610dda565b95505060606110d38a828b01610dda565b94505060806110e48a828b01610dda565b93505060a06110f58a828b01610dda565b92505060c06111068a828b0161105e565b91505092959891949750929550565b7f4e487b7100000000000000000000000000000000000000000000000000000000600052603260045260246000fd5b600082825260208201905092915050565b50565b6000611165600083611144565b915061117082611155565b600082019050919050565b6000602082019050818103600083015261119481611158565b9050919050565b7f4e487b7100000000000000000000000000000000000000000000000000000000600052601160045260246000fd5b60006111d582610c35565b91506111e083610c35565b92508282039050818111156111f8576111f761119b565b5b92915050565b600061120982610c35565b915061121483610c35565b925082820261122281610c35565b915082820484148315176112395761123861119b565b5b5092915050565b60008160011c9050919050565b6000808291508390505b6001851115611297578086048111156112735761127261119b565b5b60018516156112825780820291505b808102905061129085611240565b9450611257565b94509492505050565b6000826112b0576001905061136c565b816112be576000905061136c565b81600181146112d457600281146112de5761130d565b600191505061136c565b60ff8411156112f0576112ef61119b565b5b8360020a9150848211156113075761130661119b565b5b5061136c565b5060208310610133831016604e8410600b84101617156113425782820a90508381111561133d5761133c61119b565b5b61136c565b61134f848484600161124d565b925090508184048111156113665761136561119b565b5b81810290505b9392505050565b600060ff82169050919050565b600061138b82610c35565b915061139683611373565b92506113c37fffffffffffffffffffffffffffffffffffffffffffffffffffffffffffffffff84846112a0565b905092915050565b60006113d682610c35565b91506113e183610c35565b92508282019050808211156113f9576113f861119b565b5b92915050565b7f4e487b7100000000000000000000000000000000000000000000000000000000600052601260045260246000fd5b600061143982610c35565b915061144483610c35565b925082611454576114536113ff565b5b828204905092915050565b7f496e76616c6964204d696e612070726f6f660000000000000000000000000000600082015250565b6000611495601283611144565b91506114a08261145f565b602082019050919050565b600060208201905081810360008301526114c481611488565b9050919050565b7f496e76616c6964207175616b652070726f6f6600000000000000000000000000600082015250565b6000611501601383611144565b915061150c826114cb565b602082019050919050565b60006020820190508181036000830152611530816114f4565b9050919050565b600080fd5b600080fd5b600080fd5b60008235600160c00383360303811261156257611561611537565b5b80830191505092915050565b60008235600160200383360303811261158a57611589611537565b5b80830191505092915050565b600080833560016020038436030381126115b3576115b2611537565b5b80840192508235915067ffffffffffffffff8211156115d5576115d461153c565b5b6020830192506001820236038313156115f1576115f0611541565b5b509250929050565b600080fd5b6000601f19601f8301169050919050565b7f4e487b7100000000000000000000000000000000000000000000000000000000600052604160045260246000fd5b611647826115fe565b810181811067ffffffffffffffff821117156116665761166561160f565b5b80604052505050565b6000611679610daf565b9050611685828261163e565b919050565b6000608082840312156116a05761169f6115f9565b5b6116aa608061166f565b905060006116ba84828501610dda565b60008301525060206116ce84828501610dda565b60208301525060406116e284828501610dda565b60408301525060606116f684828501610dda565b60608301525092915050565b60006080828403121561171857611717610db9565b5b60006117268482850161168a565b91505092915050565b7f436c61696d616e7420636f6f7264696e61746573206e6f7420696e736964652060008201527f696e737572616e636520617265612e0000000000000000000000000000000000602082015250565b600061178b602f83611144565b91506117968261172f565b604082019050919050565b600060208201905081810360008301526117ba8161177e565b9050919050565b6000602082840312156117d7576117d66115f9565b5b6117e1602061166f565b905060006117f184828501610ec4565b60008301525092915050565b60006020828403121561181357611812610db9565b5b6000611821848285016117c1565b91505092915050565b600081905092915050565b600061184260008361182a565b915061184d82611155565b600082019050919050565b600061186382611835565b9150819050919050565b600080fd5b600080fd5b600080fd5b6000808335600160200384360303811261189957611898611877565b5b83810192508235915060208301925067ffffffffffffffff8211156118c1576118c061186d565b5b6020820236038313156118d7576118d6611872565b5b509250929050565b600082825260208201905092915050565b600080fd5b82818337505050565b600061190a83856118df565b93507f07ffffffffffffffffffffffffffffffffffffffffffffffffffffffffffffff83111561193d5761193c6118f0565b5b60208302925061194e8385846118f5565b82840190509392505050565b60008235600160c00383360303811261197657611975611877565b5b82810191505092915050565b6000611991602084018461105e565b905092915050565b600067ffffffffffffffff82169050919050565b6119b681611999565b81146119c157600080fd5b50565b6000813590506119d3816119ad565b92915050565b60006119e860208401846119c4565b905092915050565b6119f981611999565b82525050565b600082356001606003833603038112611a1b57611a1a611877565b5b82810191505092915050565b60008083356001602003843603038112611a4457611a43611877565b5b83810192508235915060208301925067ffffffffffffffff821115611a6c57611a6b61186d565b5b600182023603831315611a8257611a81611872565b5b509250929050565b600082825260208201905092915050565b82818337600083830152505050565b6000611ab68385611a8a565b9350611ac3838584611a9b565b611acc836115fe565b840190509392505050565b600060608301611aea6000840184611a27565b8583036000870152611afd838284611aaa565b92505050611b0e6020840184611a27565b8583036020870152611b21838284611aaa565b92505050611b326040840184611a27565b8583036040870152611b45838284611aaa565b925050508091505092915050565b600082356001602003833603038112611b6f57611b6e611877565b5b82810191505092915050565b60008083356001602003843603038112611b9857611b97611877565b5b83810192508235915060208301925067ffffffffffffffff821115611bc057611bbf61186d565b5b600182023603831315611bd657611bd5611872565b5b509250929050565b600082825260208201905092915050565b6000611bfb8385611bde565b9350611c08838584611a9b565b611c11836115fe565b840190509392505050565b600060208301611c2f6000840184611b7b565b8583036000870152611c42838284611bef565b925050508091505092915050565b600060c08301611c636000840184611982565b611c706000860182610c58565b50611c7e6020840184611982565b611c8b6020860182610c58565b50611c9960408401846119d9565b611ca660408601826119f0565b50611cb460608401846119d9565b611cc160608601826119f0565b50611ccf60808401846119ff565b8482036080860152611ce18282611ad7565b915050611cf160a0840184611b53565b84820360a0860152611d038282611c1c565b9150508091505092915050565b600060408301611d23600084018461187c565b8583036000870152611d368382846118fe565b92505050611d47602084018461195a565b8482036020860152611d598282611c50565b9150508091505092915050565b60006020820190508181036000830152611d808184611d10565b905092915050565b611d9181611011565b8114611d9c57600080fd5b50565b600081519050611dae81611d88565b92915050565b600060208284031215611dca57611dc9610db9565b5b6000611dd884828501611d9f565b9150509291505056fea2646970667358221220d36841d2ab28ae7ea43c3c7249f8b994de400efa7267312b2216e8d878c8541a64736f6c63430008190033",
        "linkReferences": {}
    },
    "methodIdentifiers": {
        "calculateFlatEarthDistance(uint256,uint256,uint256,uint256)": "512d1fd6",
        "getInsurances()": "0e709ca7",
        "getPremiumTimestamp(uint256,address)": "715e5bb4",
        "isJsonApiProofValid((bytes32[],(bytes32,bytes32,uint64,uint64,(string,string,string),(bytes))))": "9d6df051",
        "newInsurance(address,uint256,uint256,uint256,uint256,uint256,bytes32)": "af045b4c",
        "payPremium(uint256)": "4364b26e",
        "requestPayout((bytes32[],(bytes32,bytes32,uint64,uint64,(string,string,string),(bytes))),(bytes32[],(bytes32,bytes32,uint64,uint64,(string,string,string),(bytes))),uint256)": "871800fa"
    },
    "id": 95
}