{
    "abi": [
        {
            "type": "constructor",
            "inputs": [],
            "stateMutability": "nonpayable"
        },
        {
            "type": "function",
            "name": "calculateFlatEarthDistance",
            "inputs": [
                {
                    "name": "lat1",
                    "type": "uint256",
                    "internalType": "uint256"
                },
                {
                    "name": "lon1",
                    "type": "uint256",
                    "internalType": "uint256"
                },
                {
                    "name": "lat2",
                    "type": "uint256",
                    "internalType": "uint256"
                },
                {
                    "name": "lon2",
                    "type": "uint256",
                    "internalType": "uint256"
                }
            ],
            "outputs": [
                {
                    "name": "",
                    "type": "uint256",
                    "internalType": "uint256"
                }
            ],
            "stateMutability": "pure"
        },
        {
            "type": "function",
            "name": "getInsurances",
            "inputs": [],
            "outputs": [
                {
                    "name": "",
                    "type": "tuple[]",
                    "internalType": "struct InsuranceEscrow.Insurance[]",
                    "components": [
                        {
                            "name": "receiver",
                            "type": "address",
                            "internalType": "address"
                        },
                        {
                            "name": "premium",
                            "type": "uint256",
                            "internalType": "uint256"
                        },
                        {
                            "name": "payout",
                            "type": "uint256",
                            "internalType": "uint256"
                        },
                        {
                            "name": "long",
                            "type": "uint256",
                            "internalType": "uint256"
                        },
                        {
                            "name": "lat",
                            "type": "uint256",
                            "internalType": "uint256"
                        },
                        {
                            "name": "radius",
                            "type": "uint256",
                            "internalType": "uint256"
                        },
                        {
                            "name": "snarkId",
                            "type": "string",
                            "internalType": "string"
                        },
                        {
                            "name": "value",
                            "type": "uint256",
                            "internalType": "uint256"
                        }
                    ]
                }
            ],
            "stateMutability": "view"
        },
        {
            "type": "function",
            "name": "getInsurancesByUser",
            "inputs": [
                {
                    "name": "user",
                    "type": "address",
                    "internalType": "address"
                }
            ],
            "outputs": [
                {
                    "name": "",
                    "type": "tuple[]",
                    "internalType": "struct InsuranceEscrow.InsuranceAndExpiry[]",
                    "components": [
                        {
                            "name": "id",
                            "type": "uint256",
                            "internalType": "uint256"
                        },
                        {
                            "name": "expiryTimestamp",
                            "type": "uint256",
                            "internalType": "uint256"
                        }
                    ]
                }
            ],
            "stateMutability": "nonpayable"
        },
        {
            "type": "function",
            "name": "getPremiumTimestamp",
            "inputs": [
                {
                    "name": "id",
                    "type": "uint256",
                    "internalType": "uint256"
                },
                {
                    "name": "account",
                    "type": "address",
                    "internalType": "address"
                }
            ],
            "outputs": [
                {
                    "name": "",
                    "type": "uint256",
                    "internalType": "uint256"
                }
            ],
            "stateMutability": "view"
        },
        {
            "type": "function",
            "name": "isJsonApiProofValid",
            "inputs": [
                {
                    "name": "_proof",
                    "type": "tuple",
                    "internalType": "struct IJsonApi.Proof",
                    "components": [
                        {
                            "name": "merkleProof",
                            "type": "bytes32[]",
                            "internalType": "bytes32[]"
                        },
                        {
                            "name": "data",
                            "type": "tuple",
                            "internalType": "struct IJsonApi.Response",
                            "components": [
                                {
                                    "name": "attestationType",
                                    "type": "bytes32",
                                    "internalType": "bytes32"
                                },
                                {
                                    "name": "sourceId",
                                    "type": "bytes32",
                                    "internalType": "bytes32"
                                },
                                {
                                    "name": "votingRound",
                                    "type": "uint64",
                                    "internalType": "uint64"
                                },
                                {
                                    "name": "lowestUsedTimestamp",
                                    "type": "uint64",
                                    "internalType": "uint64"
                                },
                                {
                                    "name": "requestBody",
                                    "type": "tuple",
                                    "internalType": "struct IJsonApi.RequestBody",
                                    "components": [
                                        {
                                            "name": "url",
                                            "type": "string",
                                            "internalType": "string"
                                        },
                                        {
                                            "name": "postprocessJq",
                                            "type": "string",
                                            "internalType": "string"
                                        },
                                        {
                                            "name": "abi_signature",
                                            "type": "string",
                                            "internalType": "string"
                                        }
                                    ]
                                },
                                {
                                    "name": "responseBody",
                                    "type": "tuple",
                                    "internalType": "struct IJsonApi.ResponseBody",
                                    "components": [
                                        {
                                            "name": "abi_encoded_data",
                                            "type": "bytes",
                                            "internalType": "bytes"
                                        }
                                    ]
                                }
                            ]
                        }
                    ]
                }
            ],
            "outputs": [
                {
                    "name": "",
                    "type": "bool",
                    "internalType": "bool"
                }
            ],
            "stateMutability": "view"
        },
        {
            "type": "function",
            "name": "newInsurance",
            "inputs": [
                {
                    "name": "receiver",
                    "type": "address",
                    "internalType": "address"
                },
                {
                    "name": "premium",
                    "type": "uint256",
                    "internalType": "uint256"
                },
                {
                    "name": "payout",
                    "type": "uint256",
                    "internalType": "uint256"
                },
                {
                    "name": "x",
                    "type": "uint256",
                    "internalType": "uint256"
                },
                {
                    "name": "y",
                    "type": "uint256",
                    "internalType": "uint256"
                },
                {
                    "name": "radius",
                    "type": "uint256",
                    "internalType": "uint256"
                },
                {
                    "name": "snarkId",
                    "type": "string",
                    "internalType": "string"
                }
            ],
            "outputs": [
                {
                    "name": "id",
                    "type": "uint256",
                    "internalType": "uint256"
                }
            ],
            "stateMutability": "payable"
        },
        {
            "type": "function",
            "name": "payPremium",
            "inputs": [
                {
                    "name": "id",
                    "type": "uint256",
                    "internalType": "uint256"
                }
            ],
            "outputs": [],
            "stateMutability": "payable"
        },
        {
            "type": "function",
            "name": "requestPayout",
            "inputs": [
                {
                    "name": "minaData",
                    "type": "tuple",
                    "internalType": "struct IJsonApi.Proof",
                    "components": [
                        {
                            "name": "merkleProof",
                            "type": "bytes32[]",
                            "internalType": "bytes32[]"
                        },
                        {
                            "name": "data",
                            "type": "tuple",
                            "internalType": "struct IJsonApi.Response",
                            "components": [
                                {
                                    "name": "attestationType",
                                    "type": "bytes32",
                                    "internalType": "bytes32"
                                },
                                {
                                    "name": "sourceId",
                                    "type": "bytes32",
                                    "internalType": "bytes32"
                                },
                                {
                                    "name": "votingRound",
                                    "type": "uint64",
                                    "internalType": "uint64"
                                },
                                {
                                    "name": "lowestUsedTimestamp",
                                    "type": "uint64",
                                    "internalType": "uint64"
                                },
                                {
                                    "name": "requestBody",
                                    "type": "tuple",
                                    "internalType": "struct IJsonApi.RequestBody",
                                    "components": [
                                        {
                                            "name": "url",
                                            "type": "string",
                                            "internalType": "string"
                                        },
                                        {
                                            "name": "postprocessJq",
                                            "type": "string",
                                            "internalType": "string"
                                        },
                                        {
                                            "name": "abi_signature",
                                            "type": "string",
                                            "internalType": "string"
                                        }
                                    ]
                                },
                                {
                                    "name": "responseBody",
                                    "type": "tuple",
                                    "internalType": "struct IJsonApi.ResponseBody",
                                    "components": [
                                        {
                                            "name": "abi_encoded_data",
                                            "type": "bytes",
                                            "internalType": "bytes"
                                        }
                                    ]
                                }
                            ]
                        }
                    ]
                },
                {
                    "name": "quakeData",
                    "type": "tuple",
                    "internalType": "struct IJsonApi.Proof",
                    "components": [
                        {
                            "name": "merkleProof",
                            "type": "bytes32[]",
                            "internalType": "bytes32[]"
                        },
                        {
                            "name": "data",
                            "type": "tuple",
                            "internalType": "struct IJsonApi.Response",
                            "components": [
                                {
                                    "name": "attestationType",
                                    "type": "bytes32",
                                    "internalType": "bytes32"
                                },
                                {
                                    "name": "sourceId",
                                    "type": "bytes32",
                                    "internalType": "bytes32"
                                },
                                {
                                    "name": "votingRound",
                                    "type": "uint64",
                                    "internalType": "uint64"
                                },
                                {
                                    "name": "lowestUsedTimestamp",
                                    "type": "uint64",
                                    "internalType": "uint64"
                                },
                                {
                                    "name": "requestBody",
                                    "type": "tuple",
                                    "internalType": "struct IJsonApi.RequestBody",
                                    "components": [
                                        {
                                            "name": "url",
                                            "type": "string",
                                            "internalType": "string"
                                        },
                                        {
                                            "name": "postprocessJq",
                                            "type": "string",
                                            "internalType": "string"
                                        },
                                        {
                                            "name": "abi_signature",
                                            "type": "string",
                                            "internalType": "string"
                                        }
                                    ]
                                },
                                {
                                    "name": "responseBody",
                                    "type": "tuple",
                                    "internalType": "struct IJsonApi.ResponseBody",
                                    "components": [
                                        {
                                            "name": "abi_encoded_data",
                                            "type": "bytes",
                                            "internalType": "bytes"
                                        }
                                    ]
                                }
                            ]
                        }
                    ]
                },
                {
                    "name": "id",
                    "type": "uint256",
                    "internalType": "uint256"
                }
            ],
            "outputs": [],
            "stateMutability": "nonpayable"
        },
        {
            "type": "function",
            "name": "userInsuranceList",
            "inputs": [
                {
                    "name": "",
                    "type": "address",
                    "internalType": "address"
                },
                {
                    "name": "",
                    "type": "uint256",
                    "internalType": "uint256"
                }
            ],
            "outputs": [
                {
                    "name": "id",
                    "type": "uint256",
                    "internalType": "uint256"
                },
                {
                    "name": "expiryTimestamp",
                    "type": "uint256",
                    "internalType": "uint256"
                }
            ],
            "stateMutability": "view"
        },
        {
            "type": "event",
            "name": "ClaimPaid",
            "inputs": [
                {
                    "name": "id",
                    "type": "uint256",
                    "indexed": true,
                    "internalType": "uint256"
                },
                {
                    "name": "receiver",
                    "type": "address",
                    "indexed": true,
                    "internalType": "address"
                },
                {
                    "name": "payout",
                    "type": "uint256",
                    "indexed": true,
                    "internalType": "uint256"
                }
            ],
            "anonymous": false
        },
        {
            "type": "event",
            "name": "NewInsurance",
            "inputs": [
                {
                    "name": "id",
                    "type": "uint256",
                    "indexed": true,
                    "internalType": "uint256"
                }
            ],
            "anonymous": false
        },
        {
            "type": "event",
            "name": "PremiumPaid",
            "inputs": [
                {
                    "name": "id",
                    "type": "uint256",
                    "indexed": true,
                    "internalType": "uint256"
                },
                {
                    "name": "payer",
                    "type": "address",
                    "indexed": true,
                    "internalType": "address"
                }
            ],
            "anonymous": false
        }
    ],
    "bytecode": {
        "object": "0x6080604052348015600f57600080fd5b506128e88061001f6000396000f3fe6080604052600436106100865760003560e01c8063871800fa11610059578063871800fa1461014c57806389b8117e146101755780638bfbbf02146101a55780639d6df051146101e2578063da992bbf1461021f57610086565b80630e709ca71461008b5780634364b26e146100b6578063512d1fd6146100d2578063715e5bb41461010f575b600080fd5b34801561009757600080fd5b506100a061025d565b6040516100ad91906112aa565b60405180910390f35b6100d060048036038101906100cb919061130c565b6103e1565b005b3480156100de57600080fd5b506100f960048036038101906100f49190611339565b61058b565b60405161010691906113af565b60405180910390f35b34801561011b57600080fd5b50610136600480360381019061013191906113f6565b610648565b60405161014391906113af565b60405180910390f35b34801561015857600080fd5b50610173600480360381019061016e919061145a565b6106a3565b005b61018f600480360381019061018a919061154a565b610b52565b60405161019c91906113af565b60405180910390f35b3480156101b157600080fd5b506101cc60048036038101906101c7919061160c565b610d32565b6040516101d99190611717565b60405180910390f35b3480156101ee57600080fd5b5061020960048036038101906102049190611739565b610f67565b604051610216919061179d565b60405180910390f35b34801561022b57600080fd5b50610246600480360381019061024191906117b8565b610ff1565b6040516102549291906117f8565b60405180910390f35b60606001805480602002602001604051908101604052809291908181526020016000905b828210156103d85783829060005260206000209060080201604051806101000160405290816000820160009054906101000a900473ffffffffffffffffffffffffffffffffffffffff1673ffffffffffffffffffffffffffffffffffffffff1673ffffffffffffffffffffffffffffffffffffffff168152602001600182015481526020016002820154815260200160038201548152602001600482015481526020016005820154815260200160068201805461033d90611850565b80601f016020809104026020016040519081016040528092919081815260200182805461036990611850565b80156103b65780601f1061038b576101008083540402835291602001916103b6565b820191906000526020600020905b81548152906001019060200180831161039957829003601f168201915b5050505050815260200160078201548152505081526020019060010190610281565b50505050905090565b600181815481106103f5576103f4611881565b5b906000526020600020906008020160010154341015610449576040517f08c379a0000000000000000000000000000000000000000000000000000000008152600401610440906118e7565b60405180910390fd5b426002600083815260200190815260200160002060003373ffffffffffffffffffffffffffffffffffffffff1673ffffffffffffffffffffffffffffffffffffffff168152602001908152602001600020819055506000604051806040016040528083815260200162278d00426104c09190611936565b81525090506000803373ffffffffffffffffffffffffffffffffffffffff1673ffffffffffffffffffffffffffffffffffffffff168152602001908152602001600020819080600181540180825580915050600190039060005260206000209060020201600090919091909150600082015181600001556020820151816001015550503373ffffffffffffffffffffffffffffffffffffffff16827f0f58f21f82449feef29bbdbf3daf66287d35b70a3bed5faf4823b22335c0769d60405160405180910390a35050565b6000806201b198905060008685116105ae5784876105a9919061196a565b6105bb565b86856105ba919061196a565b5b905060008685116105d75784876105d2919061196a565b6105e4565b86856105e3919061196a565b5b90506000600284836105f6919061199e565b6106009190611b20565b6002858561060e919061199e565b6106189190611b20565b6106229190611936565b905069021e19e0c9bab24000008161063a9190611b9a565b945050505050949350505050565b60006002600084815260200190815260200160002060008373ffffffffffffffffffffffffffffffffffffffff1673ffffffffffffffffffffffffffffffffffffffff16815260200190815260200160002054905092915050565b62278d006002600083815260200190815260200160002060003373ffffffffffffffffffffffffffffffffffffffff1673ffffffffffffffffffffffffffffffffffffffff1681526020019081526020016000205442610703919061196a565b1115610744576040517f08c379a000000000000000000000000000000000000000000000000000000000815260040161073b906118e7565b60405180910390fd5b61074d83610f67565b61078c576040517f08c379a000000000000000000000000000000000000000000000000000000000815260040161078390611c17565b60405180910390fd5b61079582610f67565b6107d4576040517f08c379a00000000000000000000000000000000000000000000000000000000081526004016107cb90611c83565b60405180910390fd5b60008280602001906107e69190611cb2565b8060a001906107f59190611cda565b80600001906108049190611d02565b8101906108119190611e5d565b90506000610873826040015183606001516001868154811061083657610835611881565b5b9060005260206000209060080201600301546001878154811061085c5761085b611881565b5b90600052602060002090600802016004015461058b565b90506001838154811061088957610888611881565b5b90600052602060002090600802016005015481106108dc576040517f08c379a00000000000000000000000000000000000000000000000000000000081526004016108d390611efc565b60405180910390fd5b60008580602001906108ee9190611cb2565b8060a001906108fd9190611cda565b806000019061090c9190611d02565b8101906109199190611f58565b90503373ffffffffffffffffffffffffffffffffffffffff16816000015173ffffffffffffffffffffffffffffffffffffffff161461095757600080fd5b6001848154811061096b5761096a611881565b5b9060005260206000209060080201600201546001858154811061099157610990611881565b5b906000526020600020906008020160070160008282546109b1919061196a565b9250508190555060006002600086815260200190815260200160002060003373ffffffffffffffffffffffffffffffffffffffff1673ffffffffffffffffffffffffffffffffffffffff1681526020019081526020016000208190555060003373ffffffffffffffffffffffffffffffffffffffff1660018681548110610a3b57610a3a611881565b5b906000526020600020906008020160020154604051610a5990611fb3565b60006040518083038185875af1925050503d8060008114610a96576040519150601f19603f3d011682016040523d82523d6000602084013e610a9b565b606091505b5050905080610adf576040517f08c379a0000000000000000000000000000000000000000000000000000000008152600401610ad6906118e7565b60405180910390fd5b60018581548110610af357610af2611881565b5b9060005260206000209060080201600201543373ffffffffffffffffffffffffffffffffffffffff16867faf3c8fdd75d667f71d36d7840b8ef9086c516c9b047ad6a83a5a66151342123a60405160405180910390a450505050505050565b600086341015610b97576040517f08c379a0000000000000000000000000000000000000000000000000000000008152600401610b8e906118e7565b60405180910390fd5b60016040518061010001604052808b73ffffffffffffffffffffffffffffffffffffffff1681526020018a815260200189815260200188815260200187815260200186815260200185858080601f016020809104026020016040519081016040528093929190818152602001838380828437600081840152601f19601f82011690508083019250505050505050815260200134815250908060018154018082558091505060019003906000526020600020906008020160009091909190915060008201518160000160006101000a81548173ffffffffffffffffffffffffffffffffffffffff021916908373ffffffffffffffffffffffffffffffffffffffff1602179055506020820151816001015560408201518160020155606082015181600301556080820151816004015560a0820151816005015560c0820151816006019081610ce49190612174565b5060e0820151816007015550506001805490509050807f9d775c18a03054ab1c9ea7f112ca9596678e16bd9d54d785a2fbcb85a08b8d6860405160405180910390a298975050505050505050565b6060600073ffffffffffffffffffffffffffffffffffffffff168273ffffffffffffffffffffffffffffffffffffffff1603610da3576040517f08c379a0000000000000000000000000000000000000000000000000000000008152600401610d9a90612292565b60405180910390fd5b60008060003373ffffffffffffffffffffffffffffffffffffffff1673ffffffffffffffffffffffffffffffffffffffff16815260200190815260200160002090506000818054905090505b6000811115610ef3574282600183610e07919061196a565b81548110610e1857610e17611881565b5b9060005260206000209060020201600101541015610ee0578160018380549050610e42919061196a565b81548110610e5357610e52611881565b5b906000526020600020906002020182600183610e6f919061196a565b81548110610e8057610e7f611881565b5b9060005260206000209060020201600082015481600001556001820154816001015590505081805480610eb657610eb56122b2565b5b60019003818190600052602060002090600202016000808201600090556001820160009055505090555b8080610eeb906122e1565b915050610def565b5080805480602002602001604051908101604052809291908181526020016000905b82821015610f5b57838290600052602060002090600202016040518060400160405290816000820154815260200160018201548152505081526020019060010190610f15565b50505050915050919050565b6000610f71611032565b73ffffffffffffffffffffffffffffffffffffffff1663d0f18f85836040518263ffffffff1660e01b8152600401610fa99190612837565b602060405180830381865afa158015610fc6573d6000803e3d6000fd5b505050506040513d601f19601f82011682018060405250810190610fea9190612885565b9050919050565b6000602052816000526040600020818154811061100d57600080fd5b9060005260206000209060020201600091509150508060000154908060010154905082565b600073206d83e3a24523de1e43ab56ac8f7b9b10f6ab89905090565b600081519050919050565b600082825260208201905092915050565b6000819050602082019050919050565b600073ffffffffffffffffffffffffffffffffffffffff82169050919050565b60006110a58261107a565b9050919050565b6110b58161109a565b82525050565b6000819050919050565b6110ce816110bb565b82525050565b600081519050919050565b600082825260208201905092915050565b60005b8381101561110e5780820151818401526020810190506110f3565b60008484015250505050565b6000601f19601f8301169050919050565b6000611136826110d4565b61114081856110df565b93506111508185602086016110f0565b6111598161111a565b840191505092915050565b60006101008301600083015161117d60008601826110ac565b50602083015161119060208601826110c5565b5060408301516111a360408601826110c5565b5060608301516111b660608601826110c5565b5060808301516111c960808601826110c5565b5060a08301516111dc60a08601826110c5565b5060c083015184820360c08601526111f4828261112b565b91505060e083015161120960e08601826110c5565b508091505092915050565b60006112208383611164565b905092915050565b6000602082019050919050565b60006112408261104e565b61124a8185611059565b93508360208202850161125c8561106a565b8060005b8581101561129857848403895281516112798582611214565b945061128483611228565b925060208a01995050600181019050611260565b50829750879550505050505092915050565b600060208201905081810360008301526112c48184611235565b905092915050565b6000604051905090565b600080fd5b600080fd5b6112e9816110bb565b81146112f457600080fd5b50565b600081359050611306816112e0565b92915050565b600060208284031215611322576113216112d6565b5b6000611330848285016112f7565b91505092915050565b60008060008060808587031215611353576113526112d6565b5b6000611361878288016112f7565b9450506020611372878288016112f7565b9350506040611383878288016112f7565b9250506060611394878288016112f7565b91505092959194509250565b6113a9816110bb565b82525050565b60006020820190506113c460008301846113a0565b92915050565b6113d38161109a565b81146113de57600080fd5b50565b6000813590506113f0816113ca565b92915050565b6000806040838503121561140d5761140c6112d6565b5b600061141b858286016112f7565b925050602061142c858286016113e1565b9150509250929050565b600080fd5b60006040828403121561145157611450611436565b5b81905092915050565b600080600060608486031215611473576114726112d6565b5b600084013567ffffffffffffffff811115611491576114906112db565b5b61149d8682870161143b565b935050602084013567ffffffffffffffff8111156114be576114bd6112db565b5b6114ca8682870161143b565b92505060406114db868287016112f7565b9150509250925092565b600080fd5b600080fd5b600080fd5b60008083601f84011261150a576115096114e5565b5b8235905067ffffffffffffffff811115611527576115266114ea565b5b602083019150836001820283011115611543576115426114ef565b5b9250929050565b60008060008060008060008060e0898b03121561156a576115696112d6565b5b60006115788b828c016113e1565b98505060206115898b828c016112f7565b975050604061159a8b828c016112f7565b96505060606115ab8b828c016112f7565b95505060806115bc8b828c016112f7565b94505060a06115cd8b828c016112f7565b93505060c089013567ffffffffffffffff8111156115ee576115ed6112db565b5b6115fa8b828c016114f4565b92509250509295985092959890939650565b600060208284031215611622576116216112d6565b5b6000611630848285016113e1565b91505092915050565b600081519050919050565b600082825260208201905092915050565b6000819050602082019050919050565b60408201600082015161167b60008501826110c5565b50602082015161168e60208501826110c5565b50505050565b60006116a08383611665565b60408301905092915050565b6000602082019050919050565b60006116c482611639565b6116ce8185611644565b93506116d983611655565b8060005b8381101561170a5781516116f18882611694565b97506116fc836116ac565b9250506001810190506116dd565b5085935050505092915050565b6000602082019050818103600083015261173181846116b9565b905092915050565b60006020828403121561174f5761174e6112d6565b5b600082013567ffffffffffffffff81111561176d5761176c6112db565b5b6117798482850161143b565b91505092915050565b60008115159050919050565b61179781611782565b82525050565b60006020820190506117b2600083018461178e565b92915050565b600080604083850312156117cf576117ce6112d6565b5b60006117dd858286016113e1565b92505060206117ee858286016112f7565b9150509250929050565b600060408201905061180d60008301856113a0565b61181a60208301846113a0565b9392505050565b7f4e487b7100000000000000000000000000000000000000000000000000000000600052602260045260246000fd5b6000600282049050600182168061186857607f821691505b60208210810361187b5761187a611821565b5b50919050565b7f4e487b7100000000000000000000000000000000000000000000000000000000600052603260045260246000fd5b600082825260208201905092915050565b50565b60006118d16000836118b0565b91506118dc826118c1565b600082019050919050565b60006020820190508181036000830152611900816118c4565b9050919050565b7f4e487b7100000000000000000000000000000000000000000000000000000000600052601160045260246000fd5b6000611941826110bb565b915061194c836110bb565b925082820190508082111561196457611963611907565b5b92915050565b6000611975826110bb565b9150611980836110bb565b925082820390508181111561199857611997611907565b5b92915050565b60006119a9826110bb565b91506119b4836110bb565b92508282026119c2816110bb565b915082820484148315176119d9576119d8611907565b5b5092915050565b60008160011c9050919050565b6000808291508390505b6001851115611a3757808604811115611a1357611a12611907565b5b6001851615611a225780820291505b8081029050611a30856119e0565b94506119f7565b94509492505050565b600082611a505760019050611b0c565b81611a5e5760009050611b0c565b8160018114611a745760028114611a7e57611aad565b6001915050611b0c565b60ff841115611a9057611a8f611907565b5b8360020a915084821115611aa757611aa6611907565b5b50611b0c565b5060208310610133831016604e8410600b8410161715611ae25782820a905083811115611add57611adc611907565b5b611b0c565b611aef84848460016119ed565b92509050818404811115611b0657611b05611907565b5b81810290505b9392505050565b600060ff82169050919050565b6000611b2b826110bb565b9150611b3683611b13565b9250611b637fffffffffffffffffffffffffffffffffffffffffffffffffffffffffffffffff8484611a40565b905092915050565b7f4e487b7100000000000000000000000000000000000000000000000000000000600052601260045260246000fd5b6000611ba5826110bb565b9150611bb0836110bb565b925082611bc057611bbf611b6b565b5b828204905092915050565b7f496e76616c6964204d696e612070726f6f660000000000000000000000000000600082015250565b6000611c016012836118b0565b9150611c0c82611bcb565b602082019050919050565b60006020820190508181036000830152611c3081611bf4565b9050919050565b7f496e76616c6964207175616b652070726f6f6600000000000000000000000000600082015250565b6000611c6d6013836118b0565b9150611c7882611c37565b602082019050919050565b60006020820190508181036000830152611c9c81611c60565b9050919050565b600080fd5b600080fd5b600080fd5b60008235600160c003833603038112611cce57611ccd611ca3565b5b80830191505092915050565b600082356001602003833603038112611cf657611cf5611ca3565b5b80830191505092915050565b60008083356001602003843603038112611d1f57611d1e611ca3565b5b80840192508235915067ffffffffffffffff821115611d4157611d40611ca8565b5b602083019250600182023603831315611d5d57611d5c611cad565b5b509250929050565b600080fd5b7f4e487b7100000000000000000000000000000000000000000000000000000000600052604160045260246000fd5b611da28261111a565b810181811067ffffffffffffffff82111715611dc157611dc0611d6a565b5b80604052505050565b6000611dd46112cc565b9050611de08282611d99565b919050565b600060808284031215611dfb57611dfa611d65565b5b611e056080611dca565b90506000611e15848285016112f7565b6000830152506020611e29848285016112f7565b6020830152506040611e3d848285016112f7565b6040830152506060611e51848285016112f7565b60608301525092915050565b600060808284031215611e7357611e726112d6565b5b6000611e8184828501611de5565b91505092915050565b7f436c61696d616e7420636f6f7264696e61746573206e6f7420696e736964652060008201527f696e737572616e636520617265612e0000000000000000000000000000000000602082015250565b6000611ee6602f836118b0565b9150611ef182611e8a565b604082019050919050565b60006020820190508181036000830152611f1581611ed9565b9050919050565b600060208284031215611f3257611f31611d65565b5b611f3c6020611dca565b90506000611f4c848285016113e1565b60008301525092915050565b600060208284031215611f6e57611f6d6112d6565b5b6000611f7c84828501611f1c565b91505092915050565b600081905092915050565b6000611f9d600083611f85565b9150611fa8826118c1565b600082019050919050565b6000611fbe82611f90565b9150819050919050565b60008190508160005260206000209050919050565b60006020601f8301049050919050565b600082821b905092915050565b60006008830261202a7fffffffffffffffffffffffffffffffffffffffffffffffffffffffffffffffff82611fed565b6120348683611fed565b95508019841693508086168417925050509392505050565b6000819050919050565b600061207161206c612067846110bb565b61204c565b6110bb565b9050919050565b6000819050919050565b61208b83612056565b61209f61209782612078565b848454611ffa565b825550505050565b600090565b6120b46120a7565b6120bf818484612082565b505050565b5b818110156120e3576120d86000826120ac565b6001810190506120c5565b5050565b601f821115612128576120f981611fc8565b61210284611fdd565b81016020851015612111578190505b61212561211d85611fdd565b8301826120c4565b50505b505050565b600082821c905092915050565b600061214b6000198460080261212d565b1980831691505092915050565b6000612164838361213a565b9150826002028217905092915050565b61217d826110d4565b67ffffffffffffffff81111561219657612195611d6a565b5b6121a08254611850565b6121ab8282856120e7565b600060209050601f8311600181146121de57600084156121cc578287015190505b6121d68582612158565b86555061223e565b601f1984166121ec86611fc8565b60005b82811015612214578489015182556001820191506020850194506020810190506121ef565b86831015612231578489015161222d601f89168261213a565b8355505b6001600288020188555050505b505050505050565b7f5a65726f2061646472657373206e6f742061636365707461626c652e00000000600082015250565b600061227c601c836118b0565b915061228782612246565b602082019050919050565b600060208201905081810360008301526122ab8161226f565b9050919050565b7f4e487b7100000000000000000000000000000000000000000000000000000000600052603160045260246000fd5b60006122ec826110bb565b9150600082036122ff576122fe611907565b5b600182039050919050565b600080fd5b600080fd5b600080fd5b6000808335600160200384360303811261233657612335612314565b5b83810192508235915060208301925067ffffffffffffffff82111561235e5761235d61230a565b5b6020820236038313156123745761237361230f565b5b509250929050565b600082825260208201905092915050565b600080fd5b82818337505050565b60006123a7838561237c565b93507f07ffffffffffffffffffffffffffffffffffffffffffffffffffffffffffffff8311156123da576123d961238d565b5b6020830292506123eb838584612392565b82840190509392505050565b60008235600160c00383360303811261241357612412612314565b5b82810191505092915050565b6000819050919050565b6124328161241f565b811461243d57600080fd5b50565b60008135905061244f81612429565b92915050565b60006124646020840184612440565b905092915050565b6124758161241f565b82525050565b600067ffffffffffffffff82169050919050565b6124988161247b565b81146124a357600080fd5b50565b6000813590506124b58161248f565b92915050565b60006124ca60208401846124a6565b905092915050565b6124db8161247b565b82525050565b6000823560016060038336030381126124fd576124fc612314565b5b82810191505092915050565b6000808335600160200384360303811261252657612525612314565b5b83810192508235915060208301925067ffffffffffffffff82111561254e5761254d61230a565b5b6001820236038313156125645761256361230f565b5b509250929050565b82818337600083830152505050565b600061258783856110df565b935061259483858461256c565b61259d8361111a565b840190509392505050565b6000606083016125bb6000840184612509565b85830360008701526125ce83828461257b565b925050506125df6020840184612509565b85830360208701526125f283828461257b565b925050506126036040840184612509565b858303604087015261261683828461257b565b925050508091505092915050565b6000823560016020038336030381126126405761263f612314565b5b82810191505092915050565b6000808335600160200384360303811261266957612668612314565b5b83810192508235915060208301925067ffffffffffffffff8211156126915761269061230a565b5b6001820236038313156126a7576126a661230f565b5b509250929050565b600082825260208201905092915050565b60006126cc83856126af565b93506126d983858461256c565b6126e28361111a565b840190509392505050565b600060208301612700600084018461264c565b85830360008701526127138382846126c0565b925050508091505092915050565b600060c083016127346000840184612455565b612741600086018261246c565b5061274f6020840184612455565b61275c602086018261246c565b5061276a60408401846124bb565b61277760408601826124d2565b5061278560608401846124bb565b61279260608601826124d2565b506127a060808401846124e1565b84820360808601526127b282826125a8565b9150506127c260a0840184612624565b84820360a08601526127d482826126ed565b9150508091505092915050565b6000604083016127f46000840184612319565b858303600087015261280783828461239b565b9250505061281860208401846123f7565b848203602086015261282a8282612721565b9150508091505092915050565b6000602082019050818103600083015261285181846127e1565b905092915050565b61286281611782565b811461286d57600080fd5b50565b60008151905061287f81612859565b92915050565b60006020828403121561289b5761289a6112d6565b5b60006128a984828501612870565b9150509291505056fea2646970667358221220cfcf8732494f311e1afd152bdd2806cdab61a435a769208393eee7d0d089d20b64736f6c63430008190033",
        "linkReferences": {}
    },
    "methodIdentifiers": {
        "calculateFlatEarthDistance(uint256,uint256,uint256,uint256)": "512d1fd6",
        "getInsurances()": "0e709ca7",
        "getInsurancesByUser(address)": "8bfbbf02",
        "getPremiumTimestamp(uint256,address)": "715e5bb4",
        "isJsonApiProofValid((bytes32[],(bytes32,bytes32,uint64,uint64,(string,string,string),(bytes))))": "9d6df051",
        "newInsurance(address,uint256,uint256,uint256,uint256,uint256,string)": "89b8117e",
        "payPremium(uint256)": "4364b26e",
        "requestPayout((bytes32[],(bytes32,bytes32,uint64,uint64,(string,string,string),(bytes))),(bytes32[],(bytes32,bytes32,uint64,uint64,(string,string,string),(bytes))),uint256)": "871800fa",
        "userInsuranceList(address,uint256)": "da992bbf"
    },
    "id": 95
}